:020000040800F2
:1000000010040020050B0008A90A0008AB0A00082C
:10001000AD0A0008AF0A0008B10A0008000000009D
:10002000000000000000000000000000B30A00080B
:10003000B50A000800000000B70A0008B90A000865
:10004000350B0008390B00083D0B0008410B000878
:10005000450B0008490B00084D0B0008510B000828
:10006000550B0008590B00085D0B0008610B0008D8
:10007000650B0008690B00086D0B0008710B000888
:10008000750B0008790B00087D0B0008810B000838
:10009000850B0008890B00088D0B0008910B0008E8
:1000A000950B0008990B00089D0B0008A10B000898
:1000B000A50B0008A90B0008AD0B0008B10B000848
:1000C000B50B0008B90B0008BD0B0008C10B0008F8
:1000D000C50B0008C90B0008CD0B0008D10B0008A8
:1000E000D50B0008D90B0008DD0B0008E10B000858
:1000F000E50B0008E90B0008ED0B0008F10B000808
:10010000F50B0008F90B0008FD0B0008010C0008B6
:10011000050C0008090C00080D0C0008110C000863
:10012000150C0008190C00081D0C0008210C000813
:10013000250C00080000000000000000290C000849
:100140002D0C0008310C0008350C0008390C000893
:100150003D0C0008410C0008450C0008490C000843
:100160004D0C0008510C0008550C0008590C0008F3
:100170005D0C0008610C0008650C00080000000020
:1001800000000000690C00080000000000000000F2
:100190006D0C00080000000000000000710C000859
:1001A000000000000000000000000000750C0008C6
:1001B000790C00087D0C0008810C0008850C0008F3
:1001C000890C00080901020006D5E34A00F00F007F
:1001D000104400F8041C7047E04B1954704700F0BD
:1001E000070010B5C0F10703052B28BF0423041D29
:1001F000072C34BF0020C01E012404FA03F35B1E49
:100200001940814004FA00F0401E1040084310BD20
:10021000890B083001F03C0109180B681B0B42EAFE
:1002200003320A607047CE4900E0CE4981B00A68C7
:1002300002430A60096808400090009801B07047C6
:1002400030B500F00DF8046800F011F8026030BD20
:1002500030B500F005F8C46800F009F8C26030BDA0
:1002600091FAA1F3B3FA83F391FAA1F17047032550
:100270005B00B1FA81F19D404900AC438A402243C2
:100280007047F0B58DB000F0A8F800F0EEF804204B
:10029000FFF7C9FF8020FFF7C6FF0120FFF7C3FF6C
:1002A0000220FFF7C0FFB04CB04DB14F4FF400102B
:1002B000A0610122AF48016821F0F00141F0200166
:1002C00001608DF804204FF40051009102220021BA
:1002D0008DF805108DF80620684600F06DF90022B3
:1002E0004FF400512846FFF7B3FF00224FF40051AE
:1002F0002846FFF7A5FF202001210290039100224C
:1003000004920592069202A9204600F0EBF94FF400
:100310000030FFF78AFF0C21009102220192032195
:10032000029100220392012104910722059269465D
:10033000204600F0D7F94FF4E130002106900791F4
:10034000089109910C220B910C910A9206A98A4DF1
:10035000284600F03EFA286920F49040286140F6D3
:10036000FF76686920F02A006861E86840F4005070
:10037000E8604FF00050FFF758FF10200321049071
:1003800005910022089204A9204600F0ABF938201C
:100390000021009001910391784C794D6A462946DD
:1003A000204600F069FA002229462046FFF730FF78
:1003B000206840F00100206003E029462046FFF756
:1003C00027FF7868000340F6E441B0FBF1F2B24247
:1003D0003A60F2D93E603246EFE71CB569486A4C94
:1003E000016841F480410160006800F480400090A1
:1003F0004FF080500099FFF718FF226863484FF6CE
:10040000FF010A40024322600022206800F0D0F879
:1004100001466FF00B00FFF7D5FE00F0C7F801466C
:100420006FF00A00FFF7CEFE00F0C0F801466FF053
:100430000900FFF7C7FE00F0B9F801466FF00400AD
:10044000FFF7C0FE00F0B2F801466FF00300FFF7BF
:10045000B9FE00F0ABF801466FF00100FFF7B2FE05
:1004600000F0A4F8BDE81C4072E010B548480168EF
:100470000909090141F002010160006800F00F0064
:10048000022800D0FEE74348016821F4404141F4CE
:10049000804101600268404922F4803202600868AD
:1004A00020F0F80040F0800008600A6842F0010285
:1004B0000A6008688007FCD54A683848024042F460
:1004C000A84242F010024A60486820F4403040F4EC
:1004D00080304860486820F0E04040F48030486058
:1004E000086840F08070086008688001FCD58A6860
:1004F00022F0F0028A60886820F4E05040F48050D6
:100500008860886820F4604088608868800880007F
:1005100040F002008860886800F00C000828FAD1DA
:100520001F4C204600F0D2F91E48016841F004013A
:100530000160204600F0D6F91B48016821F0807167
:10054000016000221048006800F032F8BDE8104059
:1005500001464FF0FF3035E618ED00E000E400E022
:10056000303802404038024000000240000802409B
:100570000400002014380140004400400074004092
:1005800001001002443802400CED00E00007FA05BB
:10059000003C024000700040003802400080BFFF75
:1005A00000BD010510E000E08C3802402068002208
:1005B0000021C0F3022012E630B502790368264C10
:1005C0000121002A3ED0002B44D042791AB1022AE0
:1005D0000ED009D314E0656825EA0303636023683D
:1005E0000268134323600CE0256825EA030301E059
:1005F00025682B432360636802681343636000E04F
:100600000021827932B3012A04D019D3032A0ED0F3
:1006100009D315E0E36802689343E360A3680068C8
:100620000343A36016E0A3680268934302E0A36853
:1006300002681343A360E36800680343E36009E0D2
:10064000002107E0226822EA030323606368006850
:1006500083436360084630BD003C014030B500F084
:100660001FF8046800F00AF8026030BD30B500F0F1
:1006700017F8846800F002F8826030BD03255B0043
:10068000B1FA81F19D404900AC438A402243704752
:1006900030B500F005F8C468FFF7F0FFC26030BD68
:1006A00091FAA1F3B3FA83F391FAA1F1704730B54F
:1006B000FFF7F6FF046A00F00BF8026230BD30B5B8
:1006C000090AFFF7EDFF446A00F002F8426230BD0C
:1006D0000F259B00B1FA81F19D408900AC438A400F
:1006E00022437047F8B50E460546316891FAA1F0ED
:1006F000B0FA80F7FFB2346834FA07F02BD001214A
:10070000B9400C4025D0726821462846FFF7A6FF65
:100710007068012818BF022804D1B2682146284613
:10072000FFF7A4FF326921462846FFF7B1FF706842
:1007300002280ED194FAA4F0B0FA80F0C0B20828D2
:1007400072692146284602D3FFF7B9FF01E0FFF79F
:10075000AEFF7F1CCFE77068012818BF022805D1C3
:100760006968F068A14344430C436C600120F2BD0A
:1007700010B5192461436424B2F5004F0FD15B001A
:1007800000F01FF8E40032346421B4FBF1F14B00B7
:1007900003F4F87303EB021301F007010DE09B0073
:1007A00000F00FF8240132346421B4FBF1F101F0C0
:1007B000F00303EB021301F00F01C91889B2816045
:1007C00010BDB1FBF3F16422B1FBF2F204FB121491
:1007D00070477FB504460E46E0680025810439D491
:1007E000E268244871680240F0680A4331690243B4
:1007F000B0690A430243E2602169B06821F44051C4
:10080000014321616169706921F4407101436161B3
:10081000684600F06FF811498C4208D010488442B5
:100820001CBF10498C420AD00F48844201D1039961
:1008300006E00E4884421CBF0D498C420AD1029941
:1008400000291CBF3368002B04D0B2692046FFF793
:100850008FFF0125284604B070BD00000010014044
:10086000004400400048004000140140004C00409B
:1008700000500040F369FFFFF0B5012301F01001C3
:10088000056803FA01F42540A54208BF00231BD0E8
:10089000D5685468166874B134430768926840F6A6
:1008A000FA7C14430CFA01FC254327EA0C0705FAED
:1008B00001F1394307E00468FA278F403543BC4310
:1008C00005FA01F1214301601846F0BD4FF47A7238
:1008D0000649B0FBF2F0401E486000238B60052003
:1008E00008607047024908607047000010E000E0AF
:1008F0000000002010B5044600F00CF8206000F065
:100900001BF8606000F01EF8A060606800F022F83C
:10091000E06010BD2548006800F00C00042804D0F9
:10092000082818BF0C2801D001E001E018E001E020
:100930001D4870471B4870471C491D4A0968C1F390
:10094000031104E019491B4A0968C1F38221515C73
:10095000C84070471549174A0968C1F34231F6E7A4
:1009600015490A6802F48002B2F5800F0CBF0E4AE6
:100970000C4A082808680B68096800F03F00B2FBC1
:10098000F0F2C3F3881005D14243C1F30140401C8B
:10099000400002E04243C1F30270FFE7B2FBF0F017
:1009A000704700000024F40000127A00083802406A
:1009B0000C0A00082C0B0008043802400E4801689D
:1009C00041F47001016000220C49086840F0010008
:1009D00008608A600B680A480A4A03400B604A6054
:1009E00000200B68084A23F480230B60C8604FF096
:1009F000006111607047000088ED00E0003802409F
:100A0000FFFFF6FE1030002408ED00E000000000BB
:100A100000000000010203040607080930B450F882
:100A2000041B79B10268436802440830DC0744BF04
:100A3000A9F10104E31852F8045B43F8045B091FB1
:100A4000F9D1ECE730BC704710B50749794418314B
:100A5000064C7C44163404E00A68081D114488479B
:100A60000146A142F8D110BD2C0000003C0000005E
:100A70004EF68851CEF20001086840F4700008601C
:100A8000BFF34F8FBFF36F8F4FF00070E1EE100A8E
:100A90007047000089FFFFFF0C0000008400000089
:100AA00000000020000000007047FEE7FEE7FEE7C0
:100AB000FEE77047704770477047000000F00DF880
:100AC000002801D0FFF7C0FFAFF300800020AFF394
:100AD0000080FFF7D6FB00F002F80120704700F01D
:100AE00001B800000746384600F002F8FBE70000B6
:100AF00080B5AFF30080024A11001820ABBEFBE7BF
:100B0000260002000148804701480047BD0900084F
:100B1000150B0008AFF30080FFF7AAFFFFF7CEFF29
:100B20000024F400000000000000000000000000AD
:100B300001020304FFF7FEBFFFF7FEBFFFF7FEBF92
:100B4000FFF7FEBFFFF7FEBFFFF7FEBFFFF7FEBFD9
:100B5000FFF7FEBFFFF7FEBFFFF7FEBFFFF7FEBFC9
:100B6000FFF7FEBFFFF7FEBFFFF7FEBFFFF7FEBFB9
:100B7000FFF7FEBFFFF7FEBFFFF7FEBFFFF7FEBFA9
:100B8000FFF7FEBFFFF7FEBFFFF7FEBFFFF7FEBF99
:100B9000FFF7FEBFFFF7FEBFFFF7FEBFFFF7FEBF89
:100BA000FFF7FEBFFFF7FEBFFFF7FEBFFFF7FEBF79
:100BB000FFF7FEBFFFF7FEBFFFF7FEBFFFF7FEBF69
:100BC000FFF7FEBFFFF7FEBFFFF7FEBFFFF7FEBF59
:100BD000FFF7FEBFFFF7FEBFFFF7FEBFFFF7FEBF49
:100BE000FFF7FEBFFFF7FEBFFFF7FEBFFFF7FEBF39
:100BF000FFF7FEBFFFF7FEBFFFF7FEBFFFF7FEBF29
:100C0000FFF7FEBFFFF7FEBFFFF7FEBFFFF7FEBF18
:100C1000FFF7FEBFFFF7FEBFFFF7FEBFFFF7FEBF08
:100C2000FFF7FEBFFFF7FEBFFFF7FEBFFFF7FEBFF8
:100C3000FFF7FEBFFFF7FEBFFFF7FEBFFFF7FEBFE8
:100C4000FFF7FEBFFFF7FEBFFFF7FEBFFFF7FEBFD8
:100C5000FFF7FEBFFFF7FEBFFFF7FEBFFFF7FEBFC8
:100C6000FFF7FEBFFFF7FEBFFFF7FEBFFFF7FEBFB8
:100C7000FFF7FEBFFFF7FEBFFFF7FEBFFFF7FEBFA8
:0C0C8000FFF7FEBFFFF7FEBFFFF7FEBF4F
:0400000508000B15CF
:00000001FF
